:020000040000FA
:06000000FBEF17F01200F7
:020006001200E6
:0600080014EF00F01200ED
:02000E000200EE
:100010008C300000800000001F0000008A300000CB
:08002000AE0000000200000028
:08002800DACFE4FFE2CFDAFFBA
:10003000E9CFE4FFEACFE4FFF6CFE4FFF7CFE4FF38
:10004000F5CFE4FFF3CFE4FFF4CFE4FFFACFE4FF12
:1000500000EE00F0140EE80403E3EECFE4FFFBD75C
:1000600000EE14F00C0EE80403E3EECFE4FFFBD740
:10007000E6529EAAFED771EC17F000019E6F9E9A81
:100080001B0E00019E5D16E11B0EE66EE66A4F0E2A
:10009000206E1F0E216E226A20C0E6FF21C0E6FFFF
:1000A00022C0E6FF6DEC15F0236E050EE15E2350D5
:1000B000FF0014D01B0EE66EE66A310E206E1F0E96
:1000C000216E226A20C0E6FF21C0E6FF22C0E6FFC3
:1000D0006DEC15F0236E050EE15E23509E9A9EC0D6
:1000E000E6FF7CD9E55200D0E55200EE1FF00C0E81
:1000F000E80403E3E5CFEDFFFBD700EE13F0140EA9
:10010000E80403E3E5CFEDFFFBD7E5CFFAFFE5CF4A
:10011000F4FFE5CFF3FFE5CFF5FFE5CFF7FFE5CF40
:10012000F6FFE5CFEAFFE5CFE9FFE5CFDAFF110003
:10013000700ED36EFE0E926E936A896A8A6AC00E42
:10014000946E826A330EE66EE66A7C0EE66EB9EC59
:1001500015F0E552E552E552D08E9F8AF28EE668A0
:10016000ABEC17F0E552898084C0E6FF85C0E6FF5E
:100170000FEC12F0E552E552FF0EE66EE66A000E55
:10018000E66EE66AE66EE66A84C0E6FF85C0E6FFD4
:1001900091EC12F0146E080EE15E14503DD8C9ECDB
:1001A00012F0000EE66EE66AE66EE66AFF0EE66E96
:1001B000E66A82C0E6FF83C0E6FF91EC12F0146E9F
:1001C000080EE15E1450020EE66EE66A82C0E6FF9B
:1001D00083C0E6FF22EC13F0E552E552E552E5520A
:1001E000FF0EE66EE66A000EE66EE66AE66EE66A08
:1001F00082C0E6FF83C0E6FF4EEC13F0146E080EDB
:10020000E15E1450E668ABEC17F0E55200019C513A
:100210009D11FCE1D8DBFAD7040E146E1F0E156E8B
:10022000166A14C0E6FFE66E16C0E6FF6DEC15F028
:10023000E552E552E552E00E146E1E0E156E166A7A
:1002400014C0E6FFE66E16C0E6FF6DEC15F0E55251
:10025000E552E552C50E146E1E0E156E166A14C0D8
:10026000E6FFE66E16C0E6FF6DEC15F0E552E552CE
:10027000E552960E146E1E0E156E166A14C0E6FF39
:10028000E66E16C0E6FF6DEC15F0E552E552E5525C
:100290006E0E146E1E0E156E166A14C0E6FFE66E24
:1002A00016C0E6FF6DEC15F0E552E552E552450E3D
:1002B000146E1E0E156E166A14C0E6FFE66E16C0AA
:1002C000E6FF6DEC15F0E552E552E552170E146E9F
:1002D0001E0E156E166A14C0E6FFE66E16C0E6FF27
:1002E0006DEC15F0E552E552E552F10E146E1D0E5F
:1002F000156E166A14C0E6FFE66E16C0E6FF6DECDA
:1003000015F0E552E552E552CA0E146E1D0E156E3B
:10031000166A14C0E6FFE66E16C0E6FF6DEC15F037
:10032000E552E552E552990E146E1D0E156E166AD1
:1003300014C0E6FFE66E16C0E6FF6DEC15F0E55260
:10034000E552E552770E146E1D0E156E166A14C036
:10035000E6FFE66E16C0E6FF6DEC15F0E552E552DD
:10036000E552490E146E1D0E156E166A14C0E6FF96
:10037000E66E16C0E6FF6DEC15F0E552E552E5526B
:10038000200E146E1D0E156E166A14C0E6FFE66E82
:1003900016C0E6FF6DEC15F0E552E552E552EF0EA2
:1003A000146E1C0E156E166A14C0E6FFE66E16C0BB
:1003B000E6FF6DEC15F0E552E552E552E60E146EDF
:1003C0001C0E156E166A14C0E6FFE66E16C0E6FF38
:1003D0006DEC15F0E552E552E5521200D9CFE6FF7B
:1003E000E1CFD9FFFE0EDBCF14F0156A14BE1568FD
:1003F00014C0E6FF15C0E6FFDBCF16F0176A16BE85
:10040000176816C0E6FF17C0E6FFD30E186E1C0E65
:10041000196E1A6A18C0E6FFE66E1AC0E6FF6DECA8
:1004200015F01B6E070EE15E1B50300E146EFE0EB3
:10043000DB50D880145443E3FE0EDB5039083FE311
:10044000B60E146E1C0E156E166A14C0E6FFE66E2C
:1004500016C0E6FF6DEC15F0E552E552E552FE0ED2
:10046000DB50300A04E0710E146E1C0E24D29D0E77
:10047000146E1C0E156E166A14C0E6FFE66E16C0EA
:10048000E6FF6DEC15F0E552E552E552010E000174
:100490009C6F9D6B000EE66EE66AE66EE66AE66E9F
:1004A000E66A82C0E6FF83C0E6FF4EEC13F0146EEE
:1004B000080EE15E1450870E146E1C0EFCD1480E1F
:1004C000146EFE0EDB50145C04E0FE0EDB50680878
:1004D00002E1A2DEFCD1530E146EFE0EDB50145C62
:1004E00004E0FE0EDB50730824E1010E00019C6F56
:1004F0009D6B470E146E1C0E156E166A14C0E6FF37
:10050000E66E16C0E6FF6DEC15F0E552E552E552D9
:100510000F0EE66EE66A82C0E6FF83C0E6FFE8ECF7
:1005200012F0E552E552E552E552290E146E1C0E0A
:100530008BD04D0E146EFE0EDB50145C04E0FE0EEC
:10054000DB506D0824E1010E00019C6F9D6BF70EDE
:10055000146E1B0E156E166A14C0E6FFE66E16C00A
:10056000E6FF6DEC15F0E552E552E5520B0EE66E36
:10057000E66A82C0E6FF83C0E6FFE8EC12F0E552CF
:10058000E552E552E552D40E146E1B0E5DD0430EBB
:10059000146EFE0EDB50145C04E0FE0EDB506308AC
:1005A00031E1010E00019C6F9D6BAC0E146E1B0EB1
:1005B000156E166A14C0E6FFE66E16C0E6FF6DEC17
:1005C00015F0E552E552E5520C0EE66EE66A82C081
:1005D000E6FF83C0E6FFE8EC12F0E552E552E55293
:1005E000E5520C0EE66EE66A84C0E6FF85C0E6FFC3
:1005F000E8EC12F0E552E552E552E5526A0E146E4F
:100600001B0E22D0450E146EFE0EDB50145C04E06F
:10061000FE0EDB50650822E1010E00019C6F9D6B10
:10062000490E146E1B0E156E166A14C0E6FFE66EB8
:1006300016C0E6FF6DEC15F0E552E552E552C9EC47
:1006400012F0370E146E1B0E156E166A14C0E6FFFC
:10065000E66E16C0E6FF6DEC15F027D0570E146E4F
:10066000FE0EDB50145C04E0FE0EDB5077082DE13B
:10067000010E00019C6F9D6B090E146E1B0E156E12
:10068000166A14C0E6FFE66E16C0E6FF6DEC15F0C4
:10069000E552E552E552100EE66EE66A82C0E6FFCC
:1006A00083C0E6FFE8EC12F0E552E552E552E55270
:1006B000260E146E1C0E156E166A14C0E6FFE66E4A
:1006C00016C0E6FF1BEC17F0FFD0540E146EFE0EA2
:1006D000DB50145C04E0FE0EDB50740876E1F60E8D
:1006E000146E1A0E156E166A14C0E6FFE66E16C07A
:1006F000E6FF6DEC15F0E552E552E552F6D904C07F
:100700008CF005C08DF006C08EF007C08FF004C0DD
:1007100005F08DC006F08EC007F08FC008F02DECFC
:1007200011F006C096F007C097F0C3EC0FF005C0BB
:1007300018F006C019F007C01AF008C01BF005C079
:100740000AF006C00BF007C00CF008C00DF08CC01A
:1007500005F08DC006F08EC007F08FC008F0D6EC13
:100760000FF005C014F006C015F007C016F008C061
:1007700017F00A6A0B6AC80E0C6E420E0D6EC0ECC2
:1007800010F02DEC11F006C098F007C099F0E40EBF
:10079000E66E1A0EE66E06C0E6FF07C0E6FF96C0DC
:1007A000E6FF97C0E6FFE80E146E1A0E156E166A85
:1007B00014C0E6FFE66E16C0E6FFFE0EE66EE668C3
:1007C0001FEC15F0176E0B0E70D0410E146EFE0E5E
:1007D000DB50145C04E0FE0EDB50610811E1D10E29
:1007E000146E1A0E156E166A14C0E6FFE66E16C079
:1007F000E6FF6DEC15F0E552E552E552E4D867D01E
:10080000460E146EFE0EDB50145C04E0FE0EDB5050
:10081000660814E1B40E146E1A0E156E166A14C032
:10082000E6FFE66E16C0E6FF6DEC15F0E552E55208
:10083000E55200019C6B9D6B4ED849D04C0E146E56
:10084000FE0EDB50145C04E0FE0EDB506C0830E161
:10085000990E146E1A0E156E166A14C0E6FFE66E37
:1008600016C0E6FF6DEC15F0E552E552E55247DAA9
:10087000F3CF90F0F4CF91F0E40EE66E1A0EE66E30
:10088000F3CFE6FFF4CFE6FF8E0E146E1A0E156E50
:10089000166A14C0E6FFE66E16C0E6FFFE0EE66EB0
:1008A000E6681FEC15F0176E090EE15E17500FD0C9
:1008B000670E146E1A0E156E166A14C0E6FFE66E09
:1008C00016C0E6FF6DEC15F0E552E552E552E55233
:1008D000E7CFD9FF1200C9EC12F0897006D904C025
:1008E0008CF005C08DF006C08EF007C08FF004C0FC
:1008F00005F08DC006F08EC007F08FC008F02DEC1B
:1009000011F006C096F007C097F006C0F6FF07C0CA
:10091000F7FFD890F636F736C40EF626280EF722E3
:100920000900F5CFE6FF0800F5CFE6FF06C0F6FFA9
:1009300007C0F7FFD890F636F736E80EF626270EF2
:10094000F7220900F5CFE6FF0800F5CFE6FF06C065
:10095000F6FF07C0F7FFD890F636F7360C0EF626EE
:10096000270EF7220900F5CFE6FF0800F5CFE6FFD6
:1009700082C0E6FF83C0E6FF4EEC13F0146E080E53
:10098000E15E1450E40EE66E1A0EE66E96C0E6FFC7
:1009900097C0E6FF5D0E146E1A0E156E166A14C02F
:1009A000E6FFE66E16C0E6FFFE0EE66EE6681FEC9A
:1009B00015F0176E090EE15E1750800EE66EABEC77
:1009C00017F0E5521200C9EC12F089708ED804C0FD
:1009D0008CF005C08DF006C08EF007C08FF0BFD937
:1009E000F3CF92F0F4CF93F0EAD9F3CF94F0F4CFB1
:1009F00095F085D9F3CF90F0F4CF91F08CC005F04D
:100A00008DC006F08EC007F08FC008F02DEC11F0FD
:100A100006C096F007C097F006C0F6FF07C0F7FFC4
:100A2000D890F636F736C40EF626280EF7220900BF
:100A3000F5CFE6FF0800F5CFE6FF06C0F6FF07C0DA
:100A4000F7FFD890F636F736E80EF626270EF7228F
:100A50000900F5CFE6FF0800F5CFE6FF06C0F6FF78
:100A600007C0F7FFD890F636F7360C0EF626270E9D
:100A7000F7220900F5CFE6FF0800F5CFE6FF82C0B8
:100A8000E6FF83C0E6FF4EEC13F0146E080EE15E45
:100A9000145090C0E6FF91C0E6FF94C0E6FF95C0F9
:100AA000E6FF92C0E6FF93C0E6FF96C0E6FF97C060
:100AB000E6FF380EE66EE66A400E146E1A0E156EEC
:100AC000166A14C0E6FFE66E16C0E6FFFE0EE66E7E
:100AD000E6681FEC15F0176E0F0EE15E1750800EE2
:100AE000E66EABEC17F0E5521200D9CFE6FFE1CF8E
:100AF000D9FF0E0EE126DE6ADD6A020EDB6A030E06
:100B0000DB6A040EDB6A050EDB6A060EDB6A070E83
:100B1000DB6A080EDB6A090EDB6A0A0EDB6A0B0E63
:100B2000DB6A0C0EDB6A0D0EDB6AE66A140EE66EFB
:100B3000FB0EE66EB1EC16F0E552E552E55242ECE2
:100B400018F03DEC18F00009FCE124EC18F0F3CFAC
:100B5000DEFFF4CFDDFF000EDFCF06F0010EDBCFAE
:100B600007F0C3EC0FF005C01CF006C01DF007C075
:100B70001EF008C01FF00A6AC00E0B6E7F0E0C6ECE
:100B8000440E0D6E6DEC10F005C018F006C019F0A3
:100B900007C01AF008C01BF00A6A0B6AA00E0C6EA0
:100BA000400E0D6EC0EC10F005C014F006C015F03C
:100BB00007C016F008C017F00A6A0B6AC80E0C6E60
:100BC000420E0D6EC0EC10F0020E05C0DBFF030EEE
:100BD00006C0DBFF040E07C0DBFF050E08C0DBFF0D
:100BE000020EDBCF14F0030EDBCF15F0040EDBCFCB
:100BF00016F0050EDBCF17F00A6A800E0B6E880E1A
:100C00000C6E430E0D6E14C005F015C006F016C034
:100C100007F017C008F0D6EC0FF0060E05C0DBFF9A
:100C2000070E06C0DBFF080E07C0DBFF090E08C079
:100C3000DBFF060EDBCF1CF0070EDBCF1DF0080E2E
:100C4000DBCF1EF0090EDBCF1FF0660E0A6E0B6EB7
:100C5000E60E0C6E3F0E0D6E1CC005F01DC006F0BA
:100C60001EC007F01FC008F0C0EC10F005C018F05F
:100C700006C019F007C01AF008C01BF00A6A0B6A18
:100C80000C6A420E0D6ED7EC0FF005C014F006C0D2
:100C900015F007C016F008C017F00A6A0B6A800E3C
:100CA0000C6E400E0D6ED6EC0FF00A0E05C0DBFF89
:100CB0000B0E06C0DBFF0C0E07C0DBFF0D0E08C0DD
:100CC000DBFF0A0EDBCF14F00B0EDBCF15F00C0EA2
:100CD000DBCF16F00D0EDBCF17F014C004F015C0FB
:100CE00005F016C006F017C007F00E0EE15C02E238
:100CF000E16AE552E16EE552E7CFD9FF1200D9CFA4
:100D0000E6FFE1CFD9FF020EE126DE6ADD6AE66A80
:100D10000C0EE66EFB0EE66EB1EC16F0E552E552F7
:100D2000E55242EC18F03DEC18F00009FCE124EC2F
:100D300018F0F3CFDEFFF4CFDDFFDECF14F0DDCF10
:100D400015F014C0F3FF15C0F4FF020EE15C02E2DF
:100D5000E16AE552E16EE552E7CFD9FF1200D9CF43
:100D6000E6FFE1CFD9FF020EE126DE6ADD6AE66A20
:100D7000140EE66EFB0EE66EB1EC16F0E552E5528F
:100D8000E55242EC18F03DEC18F00009FCE124ECCF
:100D900018F0F3CFDEFFF4CFDDFFDECF14F0DDCFB0
:100DA00015F014C0F3FF15C0F4FF020EE15C02E27F
:100DB000E16AE552E16EE552E7CFD9FF1200D9CFE3
:100DC000E6FFE1CFD9FF020EE126DE6ADD6AE66AC0
:100DD0001C0EE66EFB0EE66EB1EC16F0E552E55227
:100DE000E55242EC18F03DEC18F00009FCE124EC6F
:100DF00018F0F3CFDEFFF4CFDDFFDECF14F0DDCF50
:100E000015F014C0F3FF15C0F4FF020EE15C02E21E
:0E0E1000E16AE552E16EE552E7CFD9FF12002C
:020E1E004BEC9B
:100E20000CF0FB0EDBCFF3FFDB06F35000090AE00A
:100E300099EC0CF0FA0E04EC0DF0F3E1151CF1E165
:100E4000010E01D0000E7AEF0CF04BEC0CF03B0ED3
:100E5000E12402E3E168E652E16E010EDB6A020E74
:100E6000DB6AF90EDBCFF6FFFA0EDBCFF7FFFB0EE6
:100E7000DBCFF8FF0800F550DF6EDF5002E19EEF98
:100E80000BF0250EDF5C02E091EF0BF0030EDB6A46
:100E9000040EDB6A050EDB6A060EDB6A070EDB6AF0
:100EA000B3EC0BF02D0EDF5C0CE02B0EDF5C09E0E9
:100EB000200EDF5C06E0230EDF5C03E0300EDF5C1B
:100EC0001AE1DF50300A14E0130A0FE0030A0AE0C7
:100ED0000B0A05E0060AE4E1030EDB80E1D7030E0E
:100EE000DB82DED7030EDB84DBD7030EDB86D8D7AD
:100EF000030EDB88D5D72A0EDF5C1BE1AFEC0BF0CD
:100F0000FDEC0BF010E0030EDB8006680768130EA3
:100F1000DBCF0BF0140EDBCF0CF0E2EC11F0040E83
:100F200004C0DBFF03D0130EE6EC0BF0B3EC0BF0C8
:100F30000BD0090EDB6A54EC0CF003E0C8EC0CF0AB
:100F4000FAD7090EE6EC0BF0030EDBB0DB982E0EA1
:100F5000DF5C1BE1B3EC0BF02A0EDF5C0BE1AFECC6
:100F60000BF0FDEC0BF003E1130E38EC0CF0B3ECDE
:100F70000BF00BD0090EDB6A54EC0CF003E0C8EC6C
:100F80000CF0FAD7090E38EC0CF0680EDF5C07E1C4
:100F9000B3EC0BF0680EDF5C1DE1030E18D0740E8D
:100FA000DF5C17E07A0EDF5C14E0480EDF5C06E0E1
:100FB000540EDF5C03E05A0EDF5C02E1020E07D044
:100FC0006C0EDF5C03E06A0EDF5C04E1010E8BEC6B
:100FD0000CF0C9DBDF506E0A01E17FD31E0A01E18C
:100FE00092D1200A01E18FD13F0A01E149D11A0AC9
:100FF00001E146D10D0A01E143D1200A01E140D1CE
:101000003A0A01E13DD1200A01E13AD1260A01E183
:1010100035D10D0A01E132D11A0A01E1D9D0200AF5
:101020004AE0300A1FE0460A0EE0250A01E083D3B9
:10103000D950F90FE96EFF0EDA20EA6E010EEE5E6E
:10104000000EEE5AEE5A99EC0CF0250EE66E95DB8A
:1010500003E1151C01E169D395EC0CF001E26BD3BF
:10106000DB2A69D3080EDB6A040EDB50010806E2B6
:10107000040EDB045DEC0CF0DB508BDB080EDB5068
:1010800009E0030EDB50010B05E172DB01E04DD3FB
:10109000080EDB6A64DBEFCFDFFF0DEC0DF003E140
:1010A000151C01E142D395EC0CF001E3DB2A60DB77
:1010B00001E141D33AD3070EDB5002080FE1D9EC2E
:1010C0000CF0030EA0EC0CF00E0EEECFDBFF0F0EBB
:1010D000EECFDBFF100EEECFDBFF20D0F70EDBCF25
:1010E00017F0F80EDBCF18F0020E175E000E185A3C
:1010F000F70E17C0DBFFF80E18C0DBFF17C0E9FFC3
:1011000018C0EAFF90EC0CF0166A0E0E14C0DBFF5C
:101110000F0E15C0DBFF100E16C0DBFF0E0EDBCF6F
:10112000E6FF0F0EDBCFE6FF100EDBCFE6FFF6EC9F
:1011300016F0E552E552E552130E05C0DBFF140E22
:1011400006C0DBFF060EDB5005E0130ED4EC0CF0FE
:1011500001E26ADBF8EC0CF002E2130E37DBBBECC9
:101160000CF006E0040ED4EC0CF002E2050E2EDBCF
:10117000030EDBB005D0FCDA01E0D7D2080EDB6A43
:10118000090EDB6A0E0EDBCFF6FF0F0EDBCFF7FF8B
:10119000100EDBCFF8FF0800F550DF6EDF5014E0D3
:1011A000FEEC0CF011E20DEC0DF003E1151C01E179
:1011B000BCD2BBDB01E3DB2A090EDB2AD9500E0FC0
:1011C000E96E000ECBDBE7D7D3DA01E1B4D2ADD2C2
:1011D000C6DA110EEECFDBFF120EEDCFDBFF110EE4
:1011E000DBCFE6FF120EDBCFE6FFE8EC16F0E552B0
:1011F000E552130EF3CFDBFF140EF4CFDBFF060E28
:10120000DB5004E0130ED0DB01E20EDBF8EC0CF057
:1012100002E2130EDBDAAFDB05E0040EC5DB02E20F
:10122000050ED4DA030EDBB005D0A2DA01E07DD2E0
:10123000080EDB6A090EDB6A110EDBCFE9FF120E26
:10124000DBCFEAFFEFCFDFFFDF5014E0D7DB12E2A6
:10125000E4DB03E1151C01E168D267DB01E3DB2A73
:10126000090EDB2A110EDB2ADBCFE9FF120EE8E3C1
:10127000DB2AE6D77DDA01E15ED257D2030EDB8EA0
:10128000070EDB0410E195DB040E5ADB0A0EEECFED
:10129000DBFF0B0EEECFDBFF0C0EEECFDBFF0D0EF8
:1012A000EECFDBFF6CD0070EDB5003082CE1030E02
:1012B000DBAE0DD0B2DA020E76DAEFCF14F0156A9B
:1012C000166A176A14AE39D01568166835D0F70E4D
:1012D000DBCF15F0F80EDBCF16F0020E155E000E18
:1012E000165AF70E15C0DBFFF80E16C0DBFF15C04F
:1012F000E9FF16C0EAFFEFCF14F00A0E14C0DBFFBF
:101300000B0EDB6A38D0070EDB50020809E1030E32
:10131000DBAE04D059DB16AE10D00ED055DB0DD0AD
:10132000030EDBAE12D079DA020E3DDAF9DA166A74
:10133000176A15AE02D016681768E2DA0C0E16C0EE
:10134000DBFF0D0E17C0DBFF1AD0F70EDBCF16F058
:10135000F80EDBCF17F0020E165E000E175AF70ECE
:1013600016C0DBFFF80E17C0DBFF16C0E9FF17C081
:10137000EAFFD6DAC5DA0C0EDB6A0D0EDB6A060E62
:10138000DB5005E1010EF36E050EF3CFDBFF150E0A
:10139000DB6A160EDB6AD950370F146E000EDA20A6
:1013A000156E390E14C0DBFF3A0E15C0DBFF380E88
:1013B000DB6A080EDB6A0A0EAEDADF50780A12E04A
:1013C000200A10E0280A0CE0200A0AE03F0A06E0A2
:1013D0000D0A02E0200A08E1020E05D0080E03D033
:1013E000080EDF26100E97DA030EDBBE02D0DB926A
:1013F000DB94DB50800B24E08ADAD890030EEB50AC
:10140000000A08E6000EEE5C000EEE58000EEE58E4
:10141000000EEE5815E213DA09680A680B680C68CA
:1014200079EC16F00A0E00C0DBFF0B0E01C0DBFFEB
:101430000C0E02C0DBFF0D0E03C0DBFF2D0E08D02B
:10144000030EDBA202D02B0E03D0DBA408D0200EAB
:10145000F36E170EF3CFDBFF150EDB2A02D0170E4B
:10146000DB6A050EDB5003E1B7D901E189D05A0EE2
:10147000146E300E156E000E166E070EDBCF17F0D1
:10148000186A196A1A6A17C009F018C00AF019C058
:101490000BF01AC00CF0D3D94DEC17F01450002407
:1014A000F36E15500120F46E16500220F86EF4CF42
:1014B000F7FFF3CFF6FF0800090EF5CFDBFF580E5C
:1014C000DF5C0FE1610EF36E090E7BD90AE3200E9B
:1014D000146E090EDBCFE7FF1450E75E090EE7CF6D
:1014E000DBFF070EDBCF14F0156A166A176A0FDAF6
:1014F00014C009F015C00AF016C00BF017C00CF0AC
:10150000EECF04F0EECF05F0EECF06F0EFCF07F010
:101510004DEC17F007C0EDFF06C0EDFF05C0EDFF75
:1015200004C0EFFF390EDBCFE9FFDB063A0EDBCF5D
:10153000EAFF01E2DB06090EDBCFEFFF150EDB2A27
:101540004BD995E1030EDBA61DD06F0EDF5C06E1E3
:10155000C1D918E3150EDB285BDA14D0780EDF5CF6
:1015600009E0580EDF5C06E0620EDF5C03E0420E2D
:10157000DF5C08E1020EF36E160EF3CFDBFF02D044
:10158000150EDB6A030EDB50100B0EE0040EDBCFF2
:1015900014F0050EDB50D880145406E2060EDB5022
:1015A00003E1040EDB5034DA95D90AE2050EDBCFF5
:1015B000E7FF150EDB50E75E050EE7CFDBFF02D03D
:1015C000050EDB6A040EDBCF14F0160E45D9D88069
:1015D000145414E2160EDBCFE6FF150EDBCFE6FF48
:1015E000040EDBCFE6FF050EDB50E552E75CE5526B
:1015F000D880E754E552D880E7545FD9030EDB501A
:10160000010B0BE1080EDB5008E0B2D801E08DD0F1
:10161000080EDB50BED8080EDB6A170EDB5007E061
:1016200088D9170EF1D903E1151C01E17ED0160E01
:10163000DB5016E07ED9300EE66E9FD802E1151C15
:1016400074E077D9DFCFE6FFFEEC15F0E552E55206
:10165000E552F4CF15F00001F31C02E1151C65E022
:10166000050EDBCF14F0160EDB50D880145409E2BF
:10167000050EDBCFE7FF160EDB50E75E050EE7CF6A
:10168000DBFF300EE66E050ECBD94FE1390EDB2ABB
:10169000DBCFE9FF3A0E01E3DB2ADBCFEAFF090EDD
:1016A000EFCFDBFFDB500EE044D9090EADD902E1EC
:1016B000151C3BE0390EDB2ADBCFE9FF3A0EEDE3E8
:1016C000DB2AEBD755D831E1160EDBCFE6FF080E4B
:1016D000C3D8E552E7245DD82ED0070EDB50030AAD
:1016E0001CE0010A14E0030A07E07BD9DBCFEEFF20
:1016F000020EDBCFEDFF1FD0F5D8196A17AE02D06E
:10170000186819682CD8BCD819C0EEFF14D0EAD8D4
:1017100017BE186824D8B4D80ED063D9DBCFEFFF3A
:101720000AD07BD905E1151C03E1F368F46810D0F9
:10173000FCD801E3DB2A79D93AEF07F0010EDBCFC1
:1017400014F0020EDBCF15F014C0F3FF15C0F4FF48
:101750003B0EE15C02E2E16AE552E16ECBD029D9B1
:10176000020EA0EF0CF061D90800F550DF6E1200F8
:10177000200EE66E080E10EF0DF0FEEC15F0E552AF
:10178000E552E552F3CF14F0F4CF15F00001F31C4D
:101790001200146E156AD950010F4DD91450EE265F
:1017A0001550ED221200185E000E195AF70E18C0DF
:1017B000DBFFF80E19C0DBFF18C0E9FF19C0EAFF14
:1017C0001200DBCFF4FFF350F45C1200DB50E76E45
:1017D000040EE7CFDBFF12000A0EDBCF14F00B0E76
:1017E000DBCF15F00C0EDBCF16F00D0EDBCF17F0B4
:1017F00014501510161017101200130EEECFDBFF49
:10180000140EEDCFDBFF130EDBCF14F0140EDBCF85
:1018100015F00001800E15141200F70EDBCF18F042
:10182000F80EDBCF19F01200050EDB50E66ED95032
:10183000130F01D9E552E750EE6EED6A12000A0E61
:10184000DBCF04F00B0EDBCF05F00C0EDBCF06F088
:101850000D0EDBCF07F01200DBCFE6FF150EDBCF5E
:10186000E6FF050EDB50E552E724E552E7241200BF
:10187000DB50CED8010EF36E060EF3CFDBFF120065
:10188000EE50EFCFEAFFE96E16C0EEFF17C0EEFF95
:1018900018C0EEFF1200D9CFE6FFDACFE6FFE1CFA6
:1018A000D9FFE2CFDAFF1200DFCFE6FFE66AD9EC1C
:1018B00017F0E552E552F3501200E76E080EE7CF3D
:1018C000DBFF1200EECF14F0EECF15F0EFCF16F0E5
:1018D000176A1200050EDBCF14F0150EDB50D8800E
:1018E00014541200010EDBCF16F0020EDBCF17F0FE
:1018F000186A1200E552E5CFDAFFE7CFD9FF1200F0
:101900000A0E14C0DBFF0B0E15C0DBFF1200D9500E
:101910000A0F1BEF0DF0F36E070EF3CFDBFF120083
:10192000EECF14F0EFCF15F01200010EDB2A020EFD
:101930001200FC0EDBCFE6FFFD0EDBCFE6FF120050
:10194000145E000E155AF70E14C0DBFFF80E15C01A
:10195000DBFF14C0E9FF15C0EAFF1200DA20EA6ECF
:10196000EF2AEECFF6FF000EEF22EECFF7FFEF22C9
:10197000EECFF8FF1200040EDBCFE6FF130EDB50B4
:10198000E552E75C9ADFDB5004DF060EDB50120005
:10199000090EDB500A0DF350DF24D00FE76E090E5D
:1019A000E7CFDBFFB3EF0BF0DB50F36E050EE1EF9B
:1019B0000BF0F70EDBCF14F0F80EDBCF15F01200B2
:1019C000DFCFE6FFBDEF0BF028DF030EECDE62EFAA
:1019D0000CF00FEC07F0E552E552E552E552000934
:1019E0001200BDDEEE50EFCFEAFFE96E010E1200ED
:1019F000130EDB50F36E040EE1EF0BF0040EDB5020
:101A0000F36E090EE1EF0BF0DBCFE6FFBDEF0BF05D
:101A1000E76E050EE7CFDBFF12008BDFE0EF0CF087
:101A2000DBCFE6FF86DFE9EF0CF0D950F90FE96E66
:101A3000FF0EAEEF0CF0E96E000EDA20EA6E120037
:101A4000245247422C2523752C2523752C252375DC
:101A50002C2523752C2523752C230A0D0054656D28
:101A6000703A2523757C0049276D20736F72727957
:101A700020446176652C2062757420492063616E74
:101A8000277420646F20746861742E0A0D004C69FD
:101A90006768743A2523757C0052656164696E67D6
:101AA00020746865206C696768742073656E736F55
:101AB000720A0D0053657474696E6720746F205448
:101AC000454D502D3E524742204D6F6465200A0D12
:101AD0000057656174686572204D6F646521202030
:101AE0000A0A0D00200A0D0054656D703A25642E17
:101AF000253033647C0052656164696E67207468C8
:101B0000652074656D700A0D0053657474696E67A5
:101B100020746865206C616E7465726E20746F202D
:101B20005468756E64657273746F726D206D6F6446
:101B3000652E2E2E0A0D0053637269707420737423
:101B40006F707065642E0A0D0053746F7070696E4B
:101B50006720616E792072756E6E696E672073639F
:101B6000726970742E2E2E0A0D004E6F7720696EEA
:101B70002043616E646C652E2E4F4820474F4420F1
:101B800049274D204F4E20464952452E2E2E6F6834
:101B900020776169742C20697473206E6F742072D1
:101BA00065616C2E2E6D6F64650A0D00536574744B
:101BB000696E6720746865206C616E7465726E2052
:101BC000746F2043616E646C65206D6F64652E2EAA
:101BD0002E0A0D004E6F7720696E204D6F6F6420C6
:101BE0006C69676874696E67206D6F64652E2E2E50
:101BF000524157520A0D0053657474696E67207420
:101C00006865206C616E7465726E20746F204D6F14
:101C10006F64206C69676874696E67206D6F6465B6
:101C20002E2E2E0A0D000A0D004E6F7720696E20B1
:101C3000536561736F6E206D6F64652E2E2E70720A
:101C4000657474790A0D0053657474696E67207445
:101C50006865206C616E7465726E20746F205365C8
:101C600061736F6E2773206D6F64652E2E2E0A0DC3
:101C700000465546554655465546554655465546E1
:101C8000554655200A0D00524742204C45442069D4
:101C900073206E6F77206F66662E0A0D00524742E2
:101CA000204C454420466164696E6720746F206F44
:101CB0006666200A0D00436F6E6669726D6564206A
:101CC000646967697420707265737365642E2E2E63
:101CD0000A0D000A0D596F75207072657373656483
:101CE0002025630A0D004C414E5445524E3E005093
:101CF00072657373204820746F206272696E67206A
:101D0000746865736520696E737472756374696F46
:101D10006E7320757020616761696E2E0A0A0D006E
:101D20005072657373203020287A65726F29207491
:101D30006F2066616465206F666620746865205256
:101D40004742204C45440A0D005072657373204C85
:101D500020746F2072656164206261636B20746817
:101D600065206C696768742073656E736F72207686
:101D7000616C75650A0D00507265737320412074A3
:101D80006F20676F20696E746F2077656174686576
:101D900072206D6F64650A0D005072657373204682
:101DA00020746F20726561642074656D7020616EAF
:101DB0006420736574204C45442062792074656DFD
:101DC000702076616C75650A0D0050726573732022
:101DD0005420746F2072656164206261636B2074AB
:101DE00068652074656D70657261747572650A0D41
:101DF000005072657373204520746F2073746F7088
:101E000020657865637574696F6E206F6620612048
:101E10006D6F64650A0D00507265737320572074EE
:101E20006F20707574204C616E7465726E20696EDF
:101E3000205468756E64657273746F726D206D6F77
:101E400064650A0D005072657373205320746F200F
:101E5000707574204C616E7465726E20696E2053CB
:101E60006561736F6E73206D6F64650A0D0050724B
:101E7000657373204320746F20707574204C616EFD
:101E80007465726E20696E2043616E646C65206DAE
:101E90006F64650A0D005072657373204D20746F76
:101EA00020707574204C616E7465726E20696E20AE
:101EB0004D6F6F64206C69676874696E67206D6F21
:101EC00064650A0D002020202020202020202020D2
:101ED000202D524742204C616E7465726E0A0D00CF
:101EE000436F7079726967687420323031302D32F7
:101EF000303131204145524F44594E45204C4142EA
:101F0000530A0D000A0A0D4145524F44594E4520CF
:101F10004C41425320554E4946494544204F504577
:101F2000524154494E472053595354454D0A0A0DC6
:101F3000000A0D3E0A0D4E6F7468696E6720746F5B
:101F40002073656520686572652E2E2E0A0D000AC5
:101F50000D3E0A0D546861742077617320746865C2
:101F600020455343206B6579204153434949232041
:101F70002564202D207265626F6F74696E67210A77
:021F80000D0052
:0E1F82000F9E08D00F9E07AE05D0066C071EFE
:101F9000E86A07220F8E07C001F006C000F0136A3E
:101FA000126A8E0E026E036A78EF11F00D7E0F6AD0
:101FB000B4EC11F0CCEC11F00FB65CEF11F00FA205
:101FC0000AD00FAA03D00FBE5CEF11F00FA468EF88
:101FD00011F065EF11F00FAA05D00FAC68EF11F00A
:101FE00065EF11F00FA00AD00FA808D00FBE04D0E3
:101FF0000FA402D071EF11F075EF11F0126A036AAD
:102000000D50085C116E10E305C013F006C000F01F
:1020100007C001F008C010F00AC005F00BC006F0C0
:102020000CC007F00F3A09D00AC013F00BC000F043
:102030000CC001F00DC010F0116C0F9E0FBC0F8E84
:1020400010C002F00FB0A4EF11F01A0E1160A4EF4F
:1020500011F0026A086A0FA408D0056C061E071E5C
:10206000081EE86A0622072208220FAC08D0136C6B
:10207000001E011E021EE86A002201220222046ADA
:10208000115207E008340732063205320432112EAD
:10209000F9D7055013260650002207500122085098
:1020A000022204C012F00F9E02AE0BD0126C131E5F
:1020B000001E011E021EE86A1322002201220222D3
:1020C0000F8E02A006D0D8800132003213321232B5
:1020D000102A10C002F078EF11F00F6AB4EC11F082
:1020E000CCEC11F00FB65CEF11F00FA205D00FBAD7
:1020F0005CEF11F063EF11F00FBA6FEF11F00FA06A
:1021000005D00FB85CEF11F06FEF11F00FB863EF6F
:1021100011F0036A7F0E0824026EE86A03220D5054
:10212000025EE86A035A1A0E106E086A126A136A8F
:10213000006A016A0A50055E0B50065A0C50075A95
:10214000000E085A09E70A5005260B5006220C50CB
:102150000722000E082201D0128AD89005360636D2
:1021600007360836D8901236133600360136102E50
:10217000E1D7075006100510D8A4128A78EF11F0A5
:102180000F6AB4EC11F0CCEC11F00FB65CEF11F06B
:102190000FA205D00FB85CEF11F063EF11F00FAA9A
:1021A00005D00FB05CEF11F063EF11F00FB002D06B
:1021B0000FA802D06FEF11F0036A0D500824026ED1
:1021C000E86A03227E0E025EE86A035A126A136A04
:1021D000006A016A0C500702F4CF01F0F3CF00F05F
:1021E0000B500702F3501326F4500022000E012278
:1021F0000C500602F3501326F4500022000E012268
:102200000A500702F3501226F4501322000E002247
:1022100001220B500602F3501226F4501322000E36
:10222000002201220C500502F3501226F450132212
:10223000000E002201220A500602F4501226000E5F
:102240001322002201220B500502F4501226000E28
:1022500013220022012278EF11F00F6AB4EC11F082
:102260000FB637EF11F00FA20ED00FB405D07F0ECE
:10227000076EFF0E066E1FD0800E076E066A1BD01B
:10228000076A066A18D00FB0FBD78F0E0860EDD72B
:102290007E0E0864F5D78E0E085C05E0D8900732F4
:1022A0000632082AF8D70FA406D0066C071EE86A83
:1022B000072207AEE5D712007F0E086EFF0E076EED
:1022C000066E056E12007F0E0FBEFF0E086E02D066
:1022D0007F0E086E800E076E066A056AF3D70FAE92
:1022E00004D0800E086E076AF7D7086A076AF4D729
:1022F0000150001013101210F8E003BEF0D701BE19
:102300000CD002500310EBE0D89012361336003692
:1023100001360206D8A00306F2D70350D4E1022802
:10232000D2E012AE11D07F0E121402E113A00CD035
:10233000132AE86A0022012207E3D8800132003222
:102340001332022A0228BFE00250C9E013C005F090
:1023500000C006F00134076E0230086E0732089E96
:102360000FBE088E62EF11F00736083602E30F84C5
:102370000F7E06E10F80086A076A066A056A120086
:10238000082803E0D88007321200D890073202E113
:102390000F8212000F8612000C360D3602E30F8CEE
:1023A0000F7E06E10F880D6A0C6A0B6A0A6A12003A
:1023B0000D2803E0D8800C321200D8900C32EAE1EC
:1023C0000F8A120007C013F006C012F006500B026D
:1023D000F4CF05F0F3CF04F007500C02F4CF07F070
:1023E000F3CF06F00B02F3500526F4500622E86AFC
:1023F000072212500C02F3500526F4500622E86A18
:1024000007220CAE08EF12F01250065E1350075A66
:0E24100013AE000C0B50065E0C50075A000C69
:02241E00D9CF14
:10242000E6FFE1CFD9FFE66A080EE66E90EC17F002
:10243000E552E552130EC86EC580C5B0FED736EC26
:1024400018F0E66A40EC16F0E55236EC18F0410E52
:10245000E66E40EC16F0E55236EC18F0FD0EDBCFE0
:10246000E6FF40EC16F0E55236EC18F0D00EE66EC2
:1024700040EC16F0E55236EC18F00D0EE66E40EC2E
:1024800016F0E55236EC18F0FD0EDBCFE6FF40EC1F
:1024900016F0E55236EC18F0C584C5B4FED7E55207
:1024A000E7CFD9FF1200D9CFE6FFE1CFD9FF020E67
:1024B000E126DE68DD6AE66A080EE66E90EC17F04B
:1024C000E552E552130EC86EC580C5B0FED736EC96
:1024D00018F0E66A40EC16F0E55236EC18F0610EA2
:1024E000E66E40EC16F0E55236EC18F017EC18F0FA
:1024F000DE6EDD6A36EC18F0C584C5B4FED7DECFDB
:1025000014F0DDCF15F014C0F3FF15C0F4FF020E78
:10251000E15C02E2E16AE552E16EE552E7CFD9FF04
:102520001200D9CFE6FFE1CFD9FFE66A080EE66ECA
:1025300090EC17F0E552E552130EC86EC580C5B099
:10254000FED736EC18F0FD0EDBCFE6FF40EC16F0C0
:10255000E55236EC18F06E0EE66E40EC16F0E552E1
:10256000FB0EDBCFE6FF40EC16F0E552F90EDBCFB9
:10257000E6FF40EC16F0E552F70EDBCFE6FF40EC4D
:1025800016F0E552C584C5B4FED7E552E7CFD9FFB2
:102590001200E66A080EE66E90EC17F0E552E5527E
:1025A000130EC86EC580C5B0FED736EC18F0E66ACB
:1025B00040EC16F0E55236EC18F06F0EE66E40EC8B
:1025C00016F0E55236EC18F0C584C5B4FED71200FB
:1025D000D9CFE6FFE1CFD9FFE66A080EE66E90ECB0
:1025E00017F0E552E552130EC86EC580C5B0FED790
:1025F00036EC18F0FD0EDBCFE6FF40EC16F0E552AE
:1026000036EC18F0700EE66E40EC16F0E55236EC43
:1026100018F0FB0EDBCFE6FF40EC16F0E55236EC8F
:1026200018F0E66A40EC16F0E55236EC18F0E66A6F
:1026300040EC16F0E552C584C5B4FED7E552E7CFAD
:10264000D9FF1200D9CFE6FFE1CFD9FFE66A080E25
:10265000E66E90EC17F0E552E552130EC86EC58099
:10266000C5B0FED736EC18F0FD0EDBCFE6FF40EC30
:1026700016F0E55236EC18F0660EE66E40EC16F0F9
:10268000E552FB0EDBCFE6FF40EC16F0E552C584C9
:10269000C5B4FED7E552E7CFD9FF1200D9CFE6FF88
:1026A000E1CFD9FFE66A080EE66E90EC17F0E5522E
:1026B000E552130EC86EC580C5B0FED736EC18F0D3
:1026C000FD0EDBCFE6FF40EC16F0E55236EC18F0DD
:1026D000630EE66E40EC16F0E552FB0EDBCFE6FF34
:1026E00040EC16F0E552F90EDBCFE6FF40EC16F0B9
:1026F000E552F70EDBCFE6FF40EC16F0E552C5845D
:0C270000C5B4FED7E552E7CFD9FF1200A8
:04270C0000000000C9
:1027100000000000000000000000000000000000B9
:1027200000000000000000000000000000000000A9
:102730000000000000000000000000000000000099
:102740000000000000000000000000000000000089
:102750000000000000000000000000000000000079
:102760000000000000000000000000000000000069
:102770000000000000000000000000000000000059
:10278000000005000A000F00140019001E002300BD
:1027900028002D00320037003C00410046004B006D
:1027A000500055005A005F00640069006E0073001D
:1027B00078007D00820087008C00910096009B00CD
:1027C000A000A500AA00AF00B400B900BE00C3007D
:1027D000C800CD00D200D700DC00E100E600EB002D
:1027E000F000F500FA00FF00000005000A000F00ED
:1027F000140019001E00230028002D0032003700AD
:102800003C00410046004B00500055005A005F005C
:10281000640069006E00730078007D00820087000C
:102820008C00910096009B00A000A500AA00AF00BC
:10283000B400B900BE00C300C800CD00D200D7006C
:10284000DC00E100E600EB00F000F500FA00FF001C
:10285000FA00F500F000EB00E600E100DC00D70034
:10286000D200CD00C800C300BE00B900B400AF0064
:10287000AA00A500A0009B00960091008C00870094
:1028800082007D00780073006E00690064005F00C4
:102890005A00550050004B00460041003C003700F4
:1028A00032002D00280023001E00190014000F0024
:1028B0000A00050000000000000000000000000009
:1028C00000000000FF00FA00F500F000EB00E60059
:1028D000E100DC00D700D200CD00C800C300BE007C
:1028E000B900B400AF00AA00A500A0009B009600AC
:1028F00091008C00870082007D00780073006E00DC
:10290000690064005F005A00550050004B0046000B
:1029100041003C00370032002D00280023001E003B
:10292000190014000F000A0005000000000000005C
:102930000000000000000000000000000000000097
:102940000000000000000000000000000000000087
:102950000000000000000000000000000000000077
:102960000000000000000000000000000000000067
:102970000000000000000000000000000000000057
:102980000000000000000000000000000000000047
:102990000000000000000000000000000000000037
:1029A0000E0EF66E000EF76E000EF86E00010900B6
:1029B000F550A46F0900F550A56F03E1A46701D09D
:1029C0003DD00900F5509F6F0900F550A06F090038
:1029D000F550A16F09000900F550E96E0900F550A6
:1029E000EA6E090009000900F550A26F0900F550D0
:1029F000A36F09000900F6CFA6F0F7CFA7F0F8CF34
:102A0000A8F09FC0F6FFA0C0F7FFA1C0F8FF00012B
:102A1000A25302E1A35307E00900F550EE6EA207AE
:102A2000F8E2A307F9D7A6C0F6FFA7C0F7FFA8C032
:0E2A3000F8FF0001A407000EA55BBFD712003F
:022A3E00D9CFEE
:102A4000E6FFDACFE6FFE1CFD9FFE2CFDAFFE652C9
:102A5000E652E652E652D950F90F146EFF0EDA2014
:102A6000156E14C0DEFFDD6EDECFE6FFDDCFE6FFC4
:102A7000F90EDBCFE6FFFA0EDBCFE6FFFB0EDBCF76
:102A8000E6FFFC0EDBCFE6FFFD0EDBCFE6FF25EC1D
:102A900007F0146E070EE15C02E2E16AE552E16EB6
:102AA0001450020EF3CFDBFF030EF4CFDBFF020E58
:102AB000DBCF14F0030EDBCF15F014C0F3FF15C00D
:102AC000F4FF040EE15C02E2E16AE552E16EE552D8
:0A2AD000E5CFDAFFE7CFD9FF1200CF
:062ADA00D9CFE6FFDACFC0
:102AE000E6FFE1CFD9FFE2CFDAFFE652E652E65247
:102AF000E652D950FB0F146EFF0EDA20156E14C08B
:102B0000DEFFDD6EDECFE6FFDDCFE6FFFB0EDBCFC7
:102B1000E6FFFC0EDBCFE6FFFD0EDBCFE6FFAEC02F
:102B2000E6FFAFC0E6FF25EC07F0146E070EE15C90
:102B300002E2E16AE552E16E1450020EF3CFDBFFD0
:102B4000030EF4CFDBFF020EDBCF14F0030EDBCF5E
:102B500015F014C0F3FF15C0F4FF040EE15C02E2AF
:102B6000E16AE552E16EE552E5CFDAFFE7CFD9FF42
:022B7000120051
:0E2B7200D9CFE6FFDACFE6FFE1CFD9FFE2CF01
:102B8000DAFFAC6AAB6AFD0EDBB0AC88DBA202D028
:102B9000AC8CAB8CDBB4AC8EDBA602D0AB8801D0A6
:102BA000AB8ADBB8AC849E98DBBAAB86DBAC02D0D8
:102BB0009D8A01D09D9A9E9ADBAE02D09D8801D05D
:102BC0009D98FB0EDB50AF6EFB0EFC0EDBCF15F0BD
:102BD00015C014F0156A1450B06EAC8AAB8E949C7C
:102BE000948EAC50100B04E0AC50800B01E1948C3F
:0C2BF000E552E5CFDAFFE7CFD9FF120075
:042BFC00D9CFE6FF48
:102C0000DACFE6FFE1CFD9FFE2CFDAFFFB0EDBCF71
:102C100014F0FC0EDBCF15F00001800E15141AE144
:102C2000FB0EDBCFE9FFFC0EDBCFEAFFEECFF3FFBD
:102C3000EDCFF4FFEE2A000EEF22F3CFE9FFF4CF41
:102C4000EAFFFD0EDBCFEFFFEF50156AF36E15C004
:102C5000F4FF10D0FB0EDB50FE0806E1FD0EDBCFCB
:102C6000E6FF09EC18F005D0FD0EDBCFE6FF03EC24
:102C700000F0E552E552E5CFDAFFE7CFD9FF1200C9
:102C8000D9CFE6FFDACFE6FFE1CFD9FFE2CFDAFF17
:102C9000FD0EDB50C96EC6AE02D0FF0E24D00F0E63
:102CA000C61408080FE00F0EC6140B080BE0C68808
:102CB0009EA6FED7C750040B03E1C750010B10E0DE
:102CC000000E11D00F0EC614080804E00F0EC61433
:102CD0000B0809E1C7B0FED736EC18F0C5AC02D03E
:102CE000FE0E01D0000EE552E5CFDAFFE7CFD9FFA7
:022CF0001200D0
:0E2CF20004500902F3CF00F0F4CF01F00A0203
:102D0000F3500126000EF420026E04500B02F35023
:102D10000226000EF420036E04500C02F35003262A
:102D200005500902F3500126F4500222000E03223E
:102D300005500A02F3500226F450032205500B02FC
:102D4000F350032606500902F3500226F4500322E2
:102D500006500A02F350032607500902F3500326D7
:022D600012005F
:0E2D6200D9CFE6FFDACFE6FFE1CFD9FFE2CF0F
:102D7000DAFFC26AC06AFC0EDB407F0B3C0BC26EFE
:102D8000FC0EDB38F00B300B146EFB0EDB500F0B20
:102D90001410C16EFD0EDB50040DF350380B156E90
:102DA000FD0EDB380F0B070B146EFD0EDB50800B96
:102DB00014101510C06EFC0EDBAE03D09E9C9D8CD3
:102DC000F28CC280E552E5CFDAFFE7CFD9FF1200DF
:102DD000FE0EE3CFE9FFFF0EE3CFEAFFF36AF46AEA
:102DE000EE5203E0F34AF42AFBD71200FF0EE3CFC2
:102DF000F8FFE552FF0EE3CFF7FFE552FF0EE3CFFA
:102E0000F6FFE552E66AE66AE66A0900F55209E06D
:102E1000FD0EE32A05E1FE0EE32A02E1FF0EE32A9E
:102E2000F4D7FD0EE3CF05F0FE0EE3CF06F0FF0E64
:062E3000E3CF07F01200E1
:0A2E3600D9CFE6FFDACFE6FFE1CFC7
:102E4000D9FFE2CFDAFFACA2FED7FB0EDBCFF6FF55
:102E5000FC0EDBCFF7FFFD0EDBCFF8FF0800F550CF
:102E6000E66EC2EC17F0E552D950FB0FE96EFF0E8B
:102E7000DA20EA6EEFCFF6FFEE2AEFCFF7FF000E73
:102E8000EE22EFCFF8FFEE220800F550DCE1E5522C
:0A2E9000E5CFDAFFE7CFD9FF12000B
:062E9A00036A026A016AEE
:102EA000006A200EE76ED8900436053606360736DF
:102EB00000360136023603360950005C0A500158CC
:102EC0000B5002580C50035809E30950005E0A5099
:102ED000015A0B50025A0C50035A042AE72EE4D729
:022EE0001200DE
:0E2EE200D9CFE6FFDACFE6FFE1CFD9FFE2CF8E
:102EF000DAFFE652F20E0001B017ABAC03D0B0918E
:102F0000ABB0B081ABB4B085ABB2B087AE50DF6EC2
:102F1000DF50E552E552E5CFDAFFE7CFD9FF1200E7
:102F2000D9CFE6FFDACFE6FFE1CFD9FFE2CFDAFF74
:102F30003F0EC716C66AC56AFD0EDB50C612FC0EF0
:102F4000DB50C71294869488C68AE552E5CFDAFF33
:062F5000E7CFD9FF1200DB
:0A2F5600FF0EE350256EEF0E01D0D0
:102F6000F30EE76EE72EB2EF17F00C0E246EE76A51
:102F7000E72EB8EF17F0242EB7EF17F0252EB0EF9D
:042F800017F0120034
:0C2F8400D9CFE6FFDACFE6FFE1CFD9FF9E
:102F9000E2CFDAFFACAC04D0AC900001B0B3AC80AF
:102FA000FD0EDB50AD6EE552E5CFDAFFE7CFD9FF7E
:022FB00012000D
:0E2FB200F36AF46AFF0EE124E96EFF0EE220DE
:102FC000EA6EED6607D02F0EEF6404D03A0EEF6084
:062FD00001D0F32A1200FB
:0A2FD600000EF36E00EE00F0060E90
:102FE00001D81200EA6002D0EE6AFCD7F350E96023
:062FF0001200EE6AFCD79E
:0A2FF60015EE00F025EE00F0F86A79
:103000000F9CD0EC14F044EC18F098EC00F0FBD7D7
:023010001200AC
:0E301200FF0EE350ACBA04D0AF6AAB8EAC8AAE
:0E302000949CACA2FED7AD6EF36EF46A120063
:02302E000F0E83
:10303000C614080804E00F0EC6140B0801E1C5868B
:08304000C7A0FED7C950120021
:08304800C450176E166AC35054
:0A3050001610F36E17C0F4FF120013
:06305A0030313233343541
:0B306000363738396162636465660032
:04306C001F0EC5145A
:0A307000FDE1C750040BFAE1120065
:06307A00C250020B01E050
:04308000010E12002B
:04308400C2821200F2
:02308800120034
:02308A00FEFF47
:04308C00000012002E
:1030900013001400150016000000000000000000DE
:0B30A000000000000000000000000025
:020000040030CA
:0100010008F6
:0100020019E4
:010003001EDE
:010006008178
:00000001FF
